:020000040800F2
:10000000F8040020C1010008171500080D140008AD
:1000100015150008CD0200081D1B00080000000097
:100020000000000000000000000000001D15000896
:100030005903000800000000191500081F150008EA
:10004000DB010008DB010008DB010008DB01000820
:10005000DB0100081B150008DB010008DB010008BC
:10006000DB010008DB010008DB010008DB01000800
:10007000DB010008DB010008DB010008DB010008F0
:10008000DB010008DB010008DB010008DB010008E0
:10009000DB010008DB010008DB010008DB010008D0
:1000A000DB010008DB010008DB010008DB010008C0
:1000B00001160008DB010008DB010008DB01000875
:1000C000DB010008DB010008DB010008DB010008A0
:1000D000DB010008111B0008DB010008DB01000840
:1000E000DB010008DB010008DB010008DB01000880
:1000F000DB010008DB010008DB010008DB01000870
:10010000DB010008DB010008DB010008DB0100085F
:10011000DB010008DB010008DB010008DB0100084F
:10012000DB010008DB010008DB010008DB0100083F
:10013000DB010008DB010008DB010008DB0100082F
:10014000DB010008DB010008DB010008DB0100081F
:10015000DB010008DB010008D1020008DB01000818
:10016000DB010008DB010008DB010008DB010008FF
:10017000DB010008DB010008DB01000800000000D3
:10018000DB010008DB010008DB010008DB010008DF
:10019000DB010008DB010008DB010008DB010008CF
:1001A000DB010008DB010008DB010008DFF80CD0F0
:1001B00000F07AF8004800475D1B0008F8040020B2
:1001C0000648804706480047FEE7FEE7FEE7FEE7F1
:1001D000FEE7FEE7FEE7FEE7FEE7FEE7AD150008F7
:1001E000AD0100082DE9F05F0546002092469B46D0
:1001F00088460646814640241BE02846414647463D
:10020000224600F041F853465A46C01A914110D395
:1002100011461846224600F028F82D1A67EB01080F
:100220004F4622460120002100F01FF817EB00097D
:100230004E41201EA4F10104DFDC484631462A4627
:100240004346BDE8F09FD2B201E000F8012B491E01
:10025000FBD270470022F6E710B513460A46044663
:100260001946FFF7F0FF204610BD202A04DB203A94
:1002700000FA02F1002070479140C2F1200320FAF9
:1002800003F3194390407047202A04DB203A21FAF7
:1002900002F00021704721FA02F3D040C2F120029F
:1002A0009140084319467047064C074D06E0E06848
:1002B00040F0010394E8070098471034AC42F6D3AD
:1002C000FFF778FFAC1B0008CC1B0008FEE700001E
:1002D000014800F055B8000098000020016818237C
:1002E000CAB2103AB2FBF3F2054B6FF30901032ACD
:1002F0009B5CC36500D9091D8165084670470000F5
:100300008C1B000810B5014600208B698A6A4FF0EB
:10031000C07453B1B3F5005F15D072B1012A0CD08F
:10032000022A0AD0032A09D104E01AB1012A06D010
:10033000022A03D1C96AC90100D5012010BDC96ACA
:10034000A142FAD010BD002AF7D0012AF2D0022A29
:10035000F3D0032AF3D010BD7047704790F83510E2
:10036000022903D08021416501207047052180F8D2
:1003700035100068016821F001010160002070471C
:100380002DE9F84304464FF00009CDF8009063488A
:100390004FF41651A56D0068B0FBF1F72E6894F884
:1003A0005C10082000FA01F131420FD021680A6880
:1003B00052070BD50A6822F004020A6094F85C1018
:1003C0008840A860606D40F00100606594F85C10A2
:1003D0004FF0010808FA01F0304208D0216849695D
:1003E000090604D5A860606D40F00200606594F8CD
:1003F0005C1004208840304208D0216809688907D1
:1004000004D5A860606D40F00400606594F85C104D
:1004100010208840304218D021680968090714D597
:10042000A86020680168490304D50068000308D566
:10043000A16C07E00168C90503D4016821F0080137
:100440000160216C09B12046884794F85C10202097
:100450008840304231D021680968C9062DD5A8608E
:1004600094F8350005282068016806D0490347D56F
:10047000006800031DD4616C1CE021F016010160CE
:100480002068416921F080014161206C08B9A06CAD
:1004900020B12068016821F00801016094F85C1027
:1004A0003F208840A86084F8349084F83580216D1E
:1004B0001FE0E16B09B120468847606D00282BD012
:1004C000606DC00714D0052084F8350020680168ED
:1004D00021F0010101600098401C0090B84203D84F
:1004E00020680068C007F6D184F8349084F835801D
:1004F000E16C002910D001B02046BDE8F043084768
:100500000168C905D5D4016821F01001016084F8A3
:10051000349084F83580CCE7BDE8F88314000020DF
:100520002DE9F041044600F04BF906465CB1002588
:1005300084F83450022084F835002068016821F0E6
:10054000010101600DE00120BDE8F08100F038F903
:10055000801B052805D920206065032084F835001C
:10056000F2E720680068C007F0D1226811682048CF
:100570000140D4E901031843D4E903363343184357
:1005800063691843A3691843E3691843236A18434E
:100590000843616A042903D1D4E90B1319430843C2
:1005A000106020684069666A20F0070130460E43FB
:1005B000012704280CD1A06A0643E06A40B1204616
:1005C000FFF7A0FE20B14020606584F83570BAE7DF
:1005D000206846612046FFF781FE94F85C203F21A9
:1005E00091408160656584F835700020ACE70000BB
:1005F0003F8010F02DE9F84FDFF890B100224FF066
:1006000001084FF0030A4FF00F090BF1040E00BF71
:100610000B6808FA02F42340A3426ED14D68022D04
:1006200001D0122D0ED1D50800EB850CDCF820503E
:100630005607F70E09FA07F6B5430E69BE402E437A
:10064000CCF82060066855000F790AFA05FC07F01F
:10065000030726EA0C06AF40374307604E68012EB9
:1006600005D0022E03D0112E01D0122E0ED1876894
:10067000CE6827EA0C07AE403E4386604668A64334
:100680000C79C4F30014944034434460C4688E6809
:1006900024EA0C04AE402643C6604C68E4006FD5E3
:1006A0003B4C256845F480452560246822F003050D
:1006B00004F480440094374C2E19D6F80848950766
:1006C0002F0F09FA07F5AC43334DA84201D100259D
:1006D0002EE0324DA84201D1012529E0304DA8423B
:1006E00001D1022524E02F4DA84201D103251FE0AE
:1006F0002D4DA84202D104251AE041E02B4DA8421D
:1007000001D1052514E02A4DA84201D106250FE0AC
:10071000284DA84201D107250AE0274DA84201D162
:10072000082505E0254DA84201D1092500E00A254C
:10073000BD402543C6F80858DBF800405D464E68CA
:100740009C43F60300D51C432C60DEF80040754640
:100750004E689C43B60300D51C432C600B4D0835F6
:100760002C684E689C43F60200D51C432C60074D54
:100770000C352C684E689C43B60200D51C432C6097
:10078000521C102AFFF444AFBDE8F88F003C014032
:1007900044380240003001400000024000040240A2
:1007A00000080240000C0240001002400014024009
:1007B00000180240001C02400020024000240240B9
:1007C00001488068704700000800002002488168E6
:1007D0000278114481607047080000200B4810B572
:1007E000016841F400710160016841F480610160B9
:1007F000016841F480710160032000F077F8002067
:1008000000F006F800F024F8002010BD003C024083
:1008100070B50D4D04464FF47A712878B1FBF0F0B5
:100820000A490968B1FBF0F000F022FB48B9102C2E
:1008300007D200222146501E00F038F800206C60DC
:1008400070BD012070BD00000800002014000020D1
:100850000E4808B5016841F480410160006800F469
:10086000804000900948001F016841F080510160FC
:100870000068002200F0805000901146052000F032
:1008800015F8BDE80840052000F002B844380240E1
:10089000002809DB00F01F0201219140400980007F
:1008A00000F1E020C0F8001170470000F0B40E4BDA
:1008B0001B680C46C3F30223C3F10705042D00D9BE
:1008C0000425191D072901D2002300E0DB1E0126A3
:1008D00006FA05F1491E214099409E40761E1640B9
:1008E0003143F0BC01F01BB90CED00E0064900F00B
:1008F000070208684FF6FF03184040EA0220034A47
:1009000010430860704700000CED00E00000FA059D
:100910002DE9F8431748016841F0805101600068F3
:10092000154F00F08050012600903E64FFF748FF0D
:1009300005464FF47A78114C05E000BFFFF740FF01
:10094000401B40450DD86068C003F7D57E64FFF7B3
:1009500037FF0546464607E0FFF732FF401BB0422F
:1009600002D90320BDE8F88360688003F4D5002035
:10097000F8E700004038024000000E4200700040DE
:100980002DE9F0470E46050065D0DFF81481D8F850
:100990000000F7B200F00F00B04207D288F80070F4
:1009A000D8F8000000F00F00B04254D128683D4C48
:1009B000810712D5400703D5206840F4E05020603D
:1009C0002878000703D5206840F460402060206844
:1009D000A96820F0F000084320602878C0072DD0D7
:1009E000304968680839012812D0022813D003283A
:1009F00011D00968890700292DDA216821F0030147
:100A000001432160FFF7DCFE814641F2883A0EE0A7
:100A100009688903EFE709688901ECE7FFF7D0FE71
:100A2000A0EB0901514502D90320BDE8F0872068F9
:100A3000696800F00C00B0EB810FEFD1D8F800101E
:100A4000404601F00F01B14207D90770006800F07D
:100A50000F00B04201D00120E7E72878400705D514
:100A60002068E96820F4E0500843206028780007F7
:100A700006D52068296920F4604040EAC100206062
:100A800000F036F82168084AC1F30311515CC840F0
:100A9000064908600020FFF7BBFE0020C5E7000004
:100AA000003C024008380240941B0008140000205B
:100AB0000448054900680968044AC1F38221515C71
:100AC000C84070471400002008380240A41B0008EA
:100AD0000448054900680968044AC1F34231515C81
:100AE000C84070471400002008380240A41B0008CA
:100AF000154810B5006810F00C02144813D01449C2
:100B0000042A0FD0082A0ED10F4C241F2268236814
:100B100002F03F025B0207D52068C0F38810A0FBFB
:100B2000010106E0084610BD2168C1F38811A1FB50
:100B300000010023FFF756FB2168C1F30141491C66
:100B40004900B0FBF1F010BD083802400024F40069
:100B500040787D012DE9F84F050076D02878DFF840
:100B6000F8B2BE4CC00749D0DBF800105846C1F3BC
:100B70008101012908D00068C0F3810002280AD150
:100B8000201D0068400206D52068800336D56868BD
:100B90000028E2D032E06868B0F5803F10D0B0F5B0
:100BA000A02F206810D020F480302060206820F42E
:100BB000802020606868A0B1FFF702FE06460CE0C6
:100BC000206840F48030F4E740F480202060F7E7AC
:100BD000FFF7F6FD801B642873D820688003F7D5E3
:100BE0000CE0FFF7EDFD064605E000BFFFF7E8FD6E
:100BF000801B6428F0D820688003F7D42878DFF8B9
:100C0000608280074FF000093ED5DBF8001058469F
:100C100011F00C0F09D00068C0F3810002280BD13D
:100C20008D48001F0068400206D42068800715D553
:100C3000E868012809D111E0E868B8B10120C8F8D6
:100C40000000FFF7BDFD064605E002E1FFF7B8FD35
:100C5000801B0228C0D820688007F7D52068296942
:100C600020F0F80040EAC10020600DE0C8F80090D4
:100C7000FFF7A6FD064604E0FFF7A2FD801B022851
:100C80001FD820688007F7D42878000722D5724E35
:100C9000744869696C3671B101210160FFF790FDFC
:100CA000074604E0FFF78CFDC01B022809D8306816
:100CB0008007F7D50EE0C0F80090FFF781FD0746EA
:100CC00005E083E0FFF77CFDC01B02287ED830687A
:100CD0008007F7D42878400768D5DFF87CA1002783
:100CE0000AF1380ADAF80000C0000BD4DAF8001074
:100CF00041F08051CAF80010DAF80000012700F036
:100D000080500090584E3068C00510D4306840F4D0
:100D100080703060FFF754FD009005E0FFF750FD54
:100D20000099401A022851D83068C005F6D54A4EBD
:100D3000A868683601280FD00528306810D020F048
:100D400001003060306820F004003060A868B8B15D
:100D5000FFF736FD00900FE0306840F00100F4E747
:100D600040F004003060F7E7FFF72AFD0099411AD0
:100D700041F28830814264D830688007F4D50EE0B3
:100D8000FFF71EFD009007E0FFF71AFD0099411ADA
:100D900041F28830814254D830688007F4D42FB1B2
:100DA000DAF8001021F08051CAF80010A869C0B329
:100DB000DBF80010C1F3810102294AD0022848461D
:100DC00007D0C8F86000FFF7FBFC00E039E00546FB
:100DD0003AE04746C8F86000FFF7F2FC064604E038
:100DE000FFF7EEFC801B02282BD820688001F7D487
:100DF000D5E907010843A96A1C4A490802EB0141E9
:100E00006A6A41EA8211084395F82C1040EA0161B0
:100E10001148001F016001203866FFF7D1FC05462C
:100E200005E014E0FFF7CCFC401B022809D820683D
:100E30008001F7D50BE000BFFFF7C2FC401B022882
:100E400002D90320BDE8F88F20688001F4D4002087
:100E5000F8E70120F6E700000838024000380240B9
:100E600000004742800E4742007000400000FFFF34
:100E700010B5401EB0F1807F01D3012010BD4FF0AE
:100E8000E02460610F21601700F049FE0020A0619E
:100E900007202061002010BD7047704770B590F8A2
:100EA0003C20012A19D0012400F83C4F0222427054
:100EB00050F83C3C5A689D6822F070060A68496800
:100EC000324325F0800529435A6050F83C2C91604C
:100ED000447000210170084670BD022070BD10B53D
:100EE000040003D094F83D0010B107E0012010BDCC
:100EF000002084F83C00204600F00CF8022084F822
:100F00003D00211D206800F081FB012084F83D0098
:100F1000002010BD08B50068B0F1804F12D10A481A
:100F2000016841F0010101600068002200F0010049
:100F3000009011461C20FFF7B9FCBDE808401C20BA
:100F4000FFF7A6BC08BD0000403802400168CA682F
:100F500042F00102CA600068816801F007010629B9
:100F600003D0016841F0010101600020704770B5B5
:100F7000044690F83C00012817D0012584F83C5025
:100F8000022084F83D002068826822F0770222F473
:100F90007F4282600868502830D00DDC20284DD078
:100FA00005DC98B310283BD148E0022070BD302802
:100FB00044D0402834D139E0602828D0702806D0A9
:100FC000B0F5805F2CD0B0F5005F29D10AE0CB6886
:100FD000D1E90121206800F07DFB2068816841F0A3
:100FE000770109E0CB68D1E90121206800F072FBAC
:100FF0002068816841F48041816011E0CA684968D5
:10100000206800F079FB5021206807E016E0CA68EC
:101010004968206800F081FB6021206800F064FBD3
:1010200084F83D50002084F83C0070BDCA684968CF
:10103000206800F061FB40212068EFE7226801464C
:101040001046EBE7704770B50446006801694FF041
:101050000005C943890715D4C168C943890711D45C
:10106000E91E016101202077206880698007204601
:1010700002D0FFF7E7FF04E000F098F8204600F008
:1010800096F8257720680169C943490717D4C168D4
:10109000C943490713D46FF004010161022020778E
:1010A0002068806910F4407F204602D0FFF7CAFF15
:1010B00004E000F07BF8204600F079F825772068FE
:1010C0000169C943090716D4C168C943090712D485
:1010D0006FF008010161042020772068C069800753
:1010E000204602D0FFF7AEFF04E000F05FF8204694
:1010F00000F05DF8257720680169C943C90617D457
:10110000C168C943C90613D46FF0100101610820FA
:1011100020772068C06910F4407F204602D0FFF796
:1011200091FF04E000F042F8204600F040F82577F7
:1011300020680169C943C90708D1C168C943C90703
:1011400004D1891E0161204600F032F8206801694F
:10115000C943090609D4C168C943090605D46FF01B
:10116000800101612046FFF797FE20680169C943AD
:10117000490609D4C168C943490605D46FF0400146
:101180000161204600F02AF820680169C9438906F8
:101190000BD4C168C943890607D46FF020010161EF
:1011A0002046BDE87040FFF778BE70BD70477047BD
:1011B0000068B0F1804F0DD107494FF4FA724868CA
:1011C000401CB0FBF2F3486002FB1300002801D181
:1011D0000120087070470000000000207047704731
:1011E00070B5026804461068D168536910F00F0F9B
:1011F00050D003F0010501F4907635435DD0C2076D
:1012000005D0CA0503D5E26B42F00102E263420752
:1012100005D5DA0703D0E26B42F00202E2638207EF
:1012200005D5DA0703D0E26B42F00402E26302075D
:1012300005D5DA0703D0E26B42F00802E263E26B05
:10124000002A33D0800604D5880602D5204600F057
:101250008CFA20684069E16BC0F38010090700D464
:1012600028B3204600F073FA2068416949061AD570
:10127000416921F040014161606BA0B11B490165EA
:10128000606BFFF76BF8002810D0606B016DBDE854
:1012900070400847830610D58B060ED52046BDE862
:1012A000704000F062BA2046FFF799FF70BD2046FB
:1012B000FFF795FF0020E06370BD030606D50B061F
:1012C00004D52046BDE8704000F0F0BB4006F3D5E1
:1012D0004806F1D5D168204621F04001D160202197
:1012E00084F8391000F091F870BD00003F17000835
:1012F00070B5040004D094F83900002510B106E060
:10130000012070BD84F83850204600F023F82420D6
:1013100084F839002068C16821F40051C16020467A
:1013200000F06EFA2068016921F4904101612068A3
:10133000416921F02A0141612068C16841F40051EE
:10134000C160E563202084F8390084F83A00002069
:1013500070BD000070B586B0064614216846FEF7E1
:1013600079FF24493068884242D12348002501682A
:1013700041F010010160006800F0100005901E4867
:101380001438016841F0010101600068694600F00D
:10139000010005904FF4C0600090022001900120F0
:1013A000029003200390072004901448FFF722F9CD
:1013B000144C134820604FF0006060604020C4E986
:1013C00002050001C4E90405A561E5612562204626
:1013D0006562FFF7A5F808B1FEF7BFFF346300228E
:1013E00011462520A663FFF761FA2520FFF750FA82
:1013F00006B070BD001001404438024000000240B9
:10140000B86402409800002070477047FEE7000073
:10141000094808B5016841F48001016000680022B4
:1014200000F48000009011464620FFF73FFABDE827
:1014300008404620FFF72CBA303802400D4808B566
:10144000016841F004010160016801F004010091AC
:10145000016841F080010160016801F080010091A4
:10146000016841F001010160006800F00100009096
:1014700008BD00003038024010B586B00024164880
:10148000009401940294039404944FF080410594D5
:1014900001605921C0E9011440F2E731C0E90314A9
:1014A0008461FFF71CFD08B1FEF757FF4FF4805031
:1014B000009069460848FFF75AFD08B1FEF74DFF56
:1014C000049404A904480594FFF7E8FC002801D01F
:1014D000FEF743FF06B010BD180000200C4810B501
:1014E0000A4901604FF4E1314160002181600C2222
:1014F000C160C0E904128161C161FFF7F9FE0028F3
:1015000003D0BDE81040FEF728BF10BD0010014019
:1015100058000020FEE77047704770477047FFF79C
:1015200055B9000070B592B030216846FEF792FEC2
:1015300014210CA8FEF78EFE1A480025016841F020
:1015400080510160006800F08050119016480168D9
:1015500021F4404141F4804101600068022400F41C
:101560004040119001200090000401908001CDE9DD
:1015700006400F2608966C20CDE9090404200B9044
:101580006846FFF7E7FAFFF7C3F9E002CDE90E502E
:10159000CDE90C64109002210CA8FFF7F1F912B00C
:1015A00070BD0000403802400070004010480168E3
:1015B00041F4700101600F48016841F001010160D0
:1015C0000C4A00210832116002680B4B1A4002607D
:1015D000031D0A4A1A60026822F48022026005484C
:1015E0000C300160024958068039086070470000DD
:1015F00088ED00E000380240FFFFF6FE10300024C6
:101600000148FFF720BD000018000020F0B5026877
:10161000254C264D264E274F274B4FF0804CA0429D
:1016200009D0604507D0A84205D0B04203D0B842E7
:1016300001D0984204D122F0700E4A6842EA0E02AC
:10164000A0421BD0604519D0A84217D0B04215D097
:10165000B84213D0984211D0184DA8420ED0184D60
:10166000A8420BD0174DA84208D0174DA84205D06C
:10167000164DA84202D0164DA84203D122F440755F
:10168000CA682A434D6922F080022A4302608A68B0
:10169000C2620A688262A04201D0984201D10969FF
:1016A000016301214161F0BD0000014000040040E0
:1016B00000080040000C00400004014000400140D0
:1016C000004401400048014000180040001C004058
:1016D0000020004010B5846842EA032224F47F44CD
:1016E0000A432243826010BD826822F070020A43DE
:1016F00042F007018160704710B5036A046A24F064
:1017000001040462846924F0F00444EA021423F022
:101710000A020A438461026210BD10B5036A23F015
:10172000100303628369046A23F4704343EA0232BC
:1017300024F0A00343EA01118261016210BD10B5DB
:10174000806B0021C185C184FFF749FD10BD016890
:10175000CA6822F49072CA6001684A6922F00102E4
:101760004A61202180F83A10704710B590F83A107D
:10177000222901D0022010BD8168B1F5805F11D00F
:101780000169002901681FD0496801F07F03816A5F
:101790004A1C82620B70C18D491E0904090CC18567
:1017A00018D02BE00269816A002A0268526805D0CD
:1017B000D2B20A80816A491C8162ECE7C2F3080256
:1017C0000A80816A891CF7E74A68816A4B1C836238
:1017D0000A70E0E70168CA6822F02002CA60016866
:1017E000CA6822F48072CA6001684A6922F0010264
:1017F0004A61202180F83A10FFF706FE002010BD54
:101800002DE9F041044600680169E26821F4405185
:10181000114301612169A068E269084361691143CC
:1018200022680843D16849F20C6399430143D160AF
:1018300020684169A26921F4407111434161E26964
:101840006425B2F5004F9748974922684FF0320857
:101850003FD08A4201D082427CD1FFF739F900EBB8
:10186000C00101EB001061688900B0FBF1F6FFF7E1
:101870002FF900EBC00101EB001061688900B0FB9B
:10188000F1F0B0FBF5F06FF01801484306EB800172
:1018900008EB0110B0FBF5F000F0F006FFF718F9C7
:1018A00000EBC00101EB001061688900B0FBF1F0B2
:1018B000B0FBF5F006EB0016FFF70AF900EBC001EC
:1018C00001EB001061688900B0FBF1F7FFF700F948
:1018D000D2E08A4201D082423DD1FFF7F9F800EB15
:1018E000C00101EB001061684900B0FBF1F0B0FBF2
:1018F000F5F00601FFF7ECF800EBC00101EB00107A
:1019000061684900B0FBF1F7FFF7E2F800EBC001B6
:1019100001EB001061684900B0FBF1F0B0FBF5F09D
:101920006FF01801484307EB800108EBC100B0FBE2
:10193000F5F000F0F80006EB4006FFF7C9F800EB01
:10194000C00101EB001061684900B0FBF1F7FFF73F
:10195000BFF83CE055E0FFF7ABF800EBC00101EB4E
:10196000001061684900B0FBF1F0B0FBF5F0060132
:10197000FFF79EF800EBC00101EB00106168490021
:10198000B0FBF1F7FFF794F800EBC00101EB00109A
:1019900061684900B0FBF1F0B0FBF5F06FF01801A1
:1019A000484307EB800108EBC100B0FBF5F000F005
:1019B000F80006EB4006FFF77BF800EBC00101EBF7
:1019C000001061684900B0FBF1F7FFF771F800EB18
:1019D000C00101EB001061684900B0FBF1F0B0FB01
:1019E000F5F06FF01801484307EB800108EBC100E8
:1019F000B0FBF5F000F00700216830448860BDE8D6
:101A0000F081FFF755F800EBC00101EB00106168B1
:101A10008900B0FBF1F6FFF74BF800EBC00101EBDA
:101A2000001061688900B0FBF1F0B0FBF5F06FF0D9
:101A30001801484306EB800108EB0110B0FBF5F0FC
:101A400000F0F006FFF734F800EBC00101EB0010E6
:101A500061688900B0FBF1F0B0FBF5F006EB001611
:101A6000FFF726F800EBC00101EB00106168890068
:101A7000B0FBF1F7FFF71CF800EBC00101EB001021
:101A800061688900B0FBF1F0B0FBF5F06FF0180170
:101A9000484307EB800108EB0110B0FBF5F000F0C4
:101AA0000F00A9E7001401400010014090F8391020
:101AB000212901D0022070478168B1F5805F016A59
:101AC0000BD04A1C0262026809785160C18C491E21
:101AD0000904090CC1840ED017E009880268C1F31B
:101AE0000801516001690029016A02D0491C0162A4
:101AF000ECE7891CFBE70168CA6822F08002CA6033
:101B00000068C16841F04001C160002070470000DA
:101B10000148FFF765BB000058000020FEE70907F9
:101B2000090E002804DB00F1E02080F80014704763
:101B300000F00F0000F1E02080F8141D704702E073
:101B400008C8121F08C1002AFAD170477047002048
:101B500001E001C1121F002AFBD17047FEF73EFED3
:101B6000FFF7E0FCFFF76AFCFFF752FCFFF784FC8D
:101B7000FFF7B4FC0348FFF7E9F90349FF20487079
:101B8000FDE70000180000200000002000061016ED
:101B9000000610160000000000000000010203040F
:101BA000060708090000000001020304CC1B00081E
:101BB00000000020180000003E1B0008E41B000885
:101BC00018000020E00400004E1B00080000000088
:101BD00000000000010000001000000000000000F4
:041BE0000024F400E9
:04000005080001AD41
:00000001FF
